:1000000014C02CC02BC02AC086C028C073C026C014
:1000100025C024C023C064C021C020C01FC01EC092
:100020001DC01CC01BC01AC019C011241FBECFEDBB
:10003000CDBF10E0A0E6B0E0E2E1F4E002C0059040
:100040000D92AA37B107D9F720E0AAE7B0E001C0C6
:100050001D92AE37B207E1F769D0D9C1D1CFB19BBC
:1000600008C0B39B08C0B49B08C0B69B08C08FEF04
:10007000089581E0089582E0089583E0089584E082
:10008000089520E23EE4F9013197F1F78150D9F764
:100090000895CF93C62F909160009923D9F0E82F4F
:1000A000F0E0EE0FFF1FED59FF4F2081318150E04E
:1000B00040E060E472E48FE090E06BD121503109C0
:1000C0001DBC1CBC1FBC8AE08EBD3BBD2ABD89B7D0
:1000D000806489BF8C2FD5DF1FBC1EBCCF910895D3
:1000E0001F920F920FB60F9211240F900FBE0F9018
:1000F0001F9018951F920F920FB60F9211248F9395
:1001000080917D008F5F80937D008F910F900FBE57
:100110000F901F9018951F920F920FB60F921124F7
:10012000849A0F900FBE0F901F901895CF93DF9376
:10013000CDB7DD2787B3856A87BB81B3806381BB79
:1001400087B3857A87BB88B38A6588BB949895986E
:10015000B19B1092600088248394912C59E8252E3D
:1001600085B7806285BF80B5886080BD8AB78061B1
:100170008ABF8BB780628BBF85B7806585BFF894D7
:100180007894889585B78F7D85BF8BB78F7D8BBF22
:1001900010BE89B7826089BF81E083BFC09A68E2E0
:1001A00078DFC0988AE06DDFC29A68E282E071DF92
:1001B000C2988AE066DFC59A68E283E06ADFC59884
:1001C0008AE05FDFC79A68E284E063DFC7988AE06D
:1001D00058DF36E0532E6DB67724452C4694C09AEE
:1001E000C29AC59AC79A82E34CDFC098C298C59854
:1001F000C79882E346DFEDB7FF27E419F109EDBFA9
:100200008DB7992701967C016C015C01382E8A2DEF
:100210008E19841508F056C050917C0040917B00E7
:100220008091610090E0042E02C0959587950A9414
:10023000E2F7880F991F82702091620030E0052E4E
:1002400002C0359527950A94E2F72170822B91E040
:10025000950F90937C0091E0940F90937B00909188
:100260007A009F5F90937A00983040F05D5F5093E2
:100270007C004A5F40937B0010927A0090917C0052
:10028000977090937C0090917B00977090937B0087
:100290008F5FF50181935F0198B3E82FF0E0EB5891
:1002A000FF4F2081840101C0000F2A95EAF7902BAF
:1002B00098BB68E2EEDE88B30095082308BB8AE0AD
:1002C000E0DEA5CF8C2D8319841508F054C00CE214
:1002D00011E0C5DE8F3F09F446C098B3E82F082E21
:1002E000000CFF0BEB58FF4F2081840101C0000F71
:1002F0002A95EAF7902B98BB182F6FE0CADE88B3D7
:100300000095082308BBABDE8F3FE9F782B7FBEA15
:100310008F278093620080917D0082258093610009
:1003200010927C0010927B0010927A0081E0A9DE8E
:10033000F60181916F01811729F280E06DBE88235B
:10034000E1F05394C29A64E185E0A3DE64E186E0C3
:10035000A0DE64E187E09DDE64E188E09ADEC29879
:1003600084E18FDE38CF81E08CDE0150110909F085
:10037000B0CF10E0DDCF81E0E1CFC09A64E188E04A
:1003800088DE64E187E085DE68E285E082DEC09891
:10039000E7CE052E97FB16F400940FD057FD05D03D
:1003A00014D007FC02D046F408C050954095309513
:1003B00021953F4F4F4F5F4F0895909580957095D1
:1003C00061957F4F8F4F9F4F0895A1E21A2EAA1B70
:1003D000BB1BFD010DC0AA1FBB1FEE1FFF1FA217F5
:1003E000B307E407F50720F0A21BB30BE40BF50BF2
:1003F000661F771F881F991F1A9469F7609570957B
:10040000809590959B01AC01BD01CF010895F894B2
:02041000FFCF1C
:100412000189AB01007003E006D007B80B0B029311
:0A0422000210031704000002050792
:00000001FF
